:02000002D0002C
:1040000000400D0054690D00000006000D00050180
:084010000401E80500000000B6
:0440180078640D00BB
:1040200009480A49884208B505D0094A824202D0A7
:10403000121A02F0DDF90748074A0021121A02F0AD
:10404000E2F9014808BD00BF24E40320C4680D0064
:104050008CE403208CE40320F0E7032070B500F02B
:10406000BFFE074C074BE41AA40800251E46A542D4
:1040700004D056F8253098470135F8E770BD00BFE9
:10408000B4680D0070680D0000F016B808B500F0B7
:104090003FF8BDE8084000F065BE00F041BC00F00C
:1040A00047BC00F045BC0078B0FA80F0400970478A
:1040B000012303707047000008B501F0FBFA01F01E
:1040C000DBF800F08DFF4FF4E13100F07DFF00F0F0
:1040D00087FF0A4900F0FDFC094800F023FA28B1E7
:1040E00000F07EFF074900F0F4FCFEE700F078FFE7
:1040F0000549BDE8084000F0ECBC00BF8C640D0031
:1041000090E403209F640D00D8640D0000000000BF
:1041100038B5234800F017FA214800F01AFA18B908
:10412000012000F0E1FDF7E71D4800F020FA044609
:104130001B4800F005FA1A4800F008FA00F050FF9A
:10414000184900F0B3FC00F04BFF0A22214600F0B2
:10415000CAFC00F045FF144900F0A8FC00F040FF45
:104160000546204601F088FD0BA3D3E9002301F0AA
:10417000E9FD02F0DFF807EE900AB2EE080A02212C
:1041800087EE800A284600F08DFD00F029FFBDE88B
:10419000384000F092BC00BF6568E1575128A43F49
:1041A00090E40320E7640D00F6640D0010B500F004
:1041B000FBF901F07FFA4FF0FF3301461A4602483F
:1041C000BDE8104000F074B990E4032008B500F099
:1041D000EBF900F0E9F9014B186008BDB0E40320E9
:1041E000F7B50446154649084068BDF820701E46DC
:1041F00001F079F82B1260688DF805508DF80430C5
:1042000003680222DB6801A998473546AB1B9F4231
:1042100006DD606815F8011B03689B689847F5E7A1
:104220000121606801F063F8002003B0F0BD1FB504
:1042300004AC097804F8013D012300932346FFF7FD
:10424000CFFF04B010BD012386228169FFF7EFBFC5
:10425000402387228169FFF7EABF00238722816913
:10426000FFF7E5BF2DE9F743044690461E464F0889
:104270004FEA122905253946606801F034F8606874
:104280008DF804908DF80580036801A9DB6802228F
:1042900098470021606801F02AF818B1013D15F037
:1042A000FF05E8D19DF828206068394601F018F82C
:1042B000751E606803681B69984730B160680368C1
:1042C0005B69984705F8010FF3E703B0BDE8F08399
:1042D00013B5012409780094FFF7C4FF003018BF1C
:1042E0000120404202B010BD13B530220C460DF142
:1042F00007038169FFF7ECFF9DF80730C3F3001354
:1043000083F00103237002B010BD37B505460C469B
:104310000DF10701FFF7E8FF0DF106033122A9694E
:104320002846FFF7D5FF50B99DF806309DF80720C5
:1043300003F001039A4206BF01232370207003B0EB
:1043400030BD000073B500251C4E8DF807500446A3
:1043500005F12D02735DA16992B220460135FFF788
:1043600066FF5B2DF4D12046FFF772FF98259DF87C
:10437000073063B90DF107012046013DFFF7C5FF86
:1043800015F0FF0516D0012000F0AEFCEFE7204647
:10439000FFF759FF2046FFF760FFA16909230822B4
:1043A0002046FFF744FF00230B22A1692046FFF7B8
:1043B0003EFF01E06FF0060002B070BD06650D0023
:1043C0001FB51C4600238DF80C308DF80D300223EC
:1043D0000978009303ABFFF745FF30B99DF80C2037
:1043E0009DF80D3003EB0223238004B010BD13B5FC
:1043F00002AB00220C4623F8022D816940F20F1215
:10440000FFF7DEFFBDF80630238002B010BD13B504
:1044100096220C460DF106038169FFF7D1FFBDF826
:104420000630238002B010BD00F0BEB8704708B55A
:104430008068002803DB002180B201F008F90A201F
:10444000BDE8084000F050BC08B58068002803DBD8
:10445000012180B201F0FBF80A20BDE8084000F01D
:1044600043BC10B51C21044601F058F9204610BD8C
:1044700013B50C460DF10601FFF7C9FFBDF8063074
:10448000236002B010BD07B50DF10601FFF7AFFFC5
:10449000BDF806004EF6AC63C01A18BF4FF0FF30EF
:1044A00003B05DF804FB08B5FFF74CFF08BD000042
:1044B0002DE9F84305464FF05208C0F80C802960FA
:1044C0006A60AB601C200F4616469946FFF7E5FD73
:1044D000044688B10A4B866080E88800002E00F10F
:1044E0001003C0F80C9080F810804761836103DBF3
:1044F0000121B0B201F09AF82C612846BDE8F8839A
:104500006C650D0007B50DF106010069FFF76FFF3F
:10451000BDF806004EF6CC23C31A5842584103B0EA
:104520005DF804FB10B50446FFF7ECFF30B12069DD
:10453000FFF708FF003018BF012010BD012010BD9B
:104540000069FFF780BE0069FFF782BE0069FFF7D0
:1045500084BE07B50DF107010069FFF7D6FE9DF88F
:104560000700003018BF012003B05DF804FB07B559
:104570000DF106010069FFF74AFFBDF8060003B020
:104580005DF804FB00F010B808B5024B1B689B688F
:10459000019308BD6802030008B5024B1B68DB6885
:1045A000019308BD6802030008B5024B1B681B6835
:1045B000019308BD2C02030008B5024B1B689B68E1
:1045C000019308BD2C02030008B5024B1B68DB6891
:1045D000019308BD2C02030008B5024B1B681B6940
:1045E000019308BD2C02030008B5024B1B68DB6970
:1045F000019308BD3002030008B5024B1B681B6A1B
:10460000019308BD3002030008B5024B1B685B68CC
:10461000019308BD1802030008B5024B1B685B69D3
:10462000019308BD1802030008B5024B1B689B6884
:10463000019308BD4802030008B5024B1B681B69C3
:10464000019308BD4802030008B5024B1B685B6973
:10465000019308BD4802030008B5024B1B685B6C60
:10466000019308BD4802030008B5024B1B689B6C10
:10467000019308BD4802030008B5024B1B685B6943
:10468000019308BD6402030008B5024B1B681B6858
:10469000019308BD3C02030008B5024B1B68DB68B0
:1046A000019308BD3C02030008B5024B1B681B695F
:1046B000019308BD3C02030008B5024B1B685B690F
:1046C000019308BD3C02030008B5024B1B689B69BF
:1046D000019308BD3C02030008B5024B1B68DB696F
:1046E000019308BD3C02030008B5024B1B681B6A1E
:1046F000019308BD3C02030008B5024B1B689B6A8E
:10470000019308BD3C02030008B5024B1B68DB683F
:10471000019308BD2802030008B5024B1B689B6982
:10472000019308BD2802030008B5024B1B68DB6932
:10473000019308BD2802030008B5024B1B681B6AE1
:10474000019308BD2802030008B5024B1B685B6A91
:10475000019308BD2802030008B5024B1B689B6A41
:10476000019308BD2802030008B5024B1B68DB6AF1
:10477000019308BD2802030008B5024B1B681B6BA0
:10478000019308BD2802030008B5024B1B685B6B50
:10479000019308BD2802030008B5024B1B681B6C7F
:1047A000019308BD2802030008B5024B1B681B6D6E
:1047B000019308BD2802030008B5024B1B681B6863
:1047C000019308BD4C02030008B5024B1B685B68EF
:1047D000019308BD4C02030008B5024B1B681B691E
:1047E000019308BD4C02030008B5024B1B685B69CE
:1047F000019308BD4C02030008B5024B1B689B697E
:10480000019308BD4C02030008B5024B1B68DB692D
:10481000019308BD4C02030008B5024B1B681B6ADC
:10482000019308BD4C02030008B5024B1B685B688E
:10483000019308BD2002030008B5024B1B685B69A9
:10484000019308BD2002030008B5034B1B68D3F891
:104850008830019308BD00002002030008B5034B17
:104860001B68D3F89430019308BD000020020300B8
:1048700008B5024B1B685B68019308BD400203004A
:1048800008B5024B1B689B68019308BD40020300FA
:1048900008B5024B1B68DB68019308BD40020300AA
:1048A00008B5024B1B681B69019308BD4002030059
:1048B00008B5024B1B685B69019308BD4002030009
:1048C00008B5024B1B689B69019308BD40020300B9
:1048D00008B5024B1B68DB69019308BD4002030069
:1048E00008B5024B1B681B6A019308BD4002030018
:1048F00008B5024B1B681B6B019308BD4002030007
:1049000008B5024B1B685B6B019308BD40020300B6
:1049100008B5024B1B68DB6B019308BD4402030022
:1049200008B5024B1B681B68019308BD1C020300FD
:1049300008B5024B1B685B68019308BD1C020300AD
:10494000002211464068FFF7CBBF002211464068A5
:10495000FFF7D6BF00224068FFF7CABF002281F0F0
:1049600001014068FFF7B4BF00231A4619464068AA
:10497000FFF7A6BF00231A4619464068FFF798BF05
:10498000002211464068FFF78BBF002211464068A5
:10499000FFF776BF002202214068FFF779BF0023AE
:1049A0001A464068FFF764BF024B03225A60024A6E
:1049B0001A607047B4E4032090650D0010B50446FA
:1049C00001700846FFF710FE00236360204610BD0B
:1049D0000078FFF711BE10B50446006818B1FFF764
:1049E000A7FF0023236010BD10B50446FFF7F3FFB7
:1049F000204610BD10B5094C00204FF6FF73206013
:104A0000A080A07120816381FFF70EFF2046044A39
:104A10000449BDE8104000F073BE00BFBCE40320B1
:104A20008CE40320E9490D0010B50446006808B184
:104A3000FFF71AFE204610BD10B5064C0023204695
:104A40002360FFF709FE2046034A0449BDE81040F1
:104A500000F056BEC8E403208CE40320294A0D0070
:104A6000F8B506460D468F180024BD420CD03368B9
:104A700015F8011B9B6830469847002801DB044469
:104A8000F3E7002C08BF04462046F8BD70B5054684
:104A90000C46084649B101F0E7FC2B680246214666
:104AA0002846DB68BDE87040184770BD08B5FFF7C1
:104AB000EDFF08BD03689B68184738B50D21054612
:104AC000FFF7F8FF0A2104462846FFF7F3FF2044CA
:104AD00038BD38B50546FFF7D9FF04462846FFF72D
:104AE000ECFF204438BD30B58BB00B4600218DF86B
:104AF0002410012A98BF0A220DF12304B3FBF2F51A
:104B000005FB123303F0FF03092B94BF3033373317
:104B1000DBB2214604F801392B46002DEED1FFF718
:104B2000B5FF0BB030BD00002DE9F04757EC106B1E
:104B300082460D4610EE102A3B4610EE100A39460A
:104B400001F09AFB08B14E4912E027F000494FF0FE
:104B5000FF324C4B3046494601F08EFB68B94FF0AE
:104B6000FF32484B3046494601F068FB28B94649B8
:104B70005046FFF78BFFBDE8F0874FF06042434B94
:104B80003046394601F06EFB08B14149F0E74FF07D
:104B90006042404B3046394601F046FB0028F4D1D4
:104BA000002200233046394601F03EFB40B12D2162
:104BB0005046FFF77FFF07F1004304461F4600E021
:104BC000044635494FF0000800205FFA88F39D4203
:104BD00006D90022314B01F0DFF908F10108F4E7B2
:104BE00032463B4600F0FCFE0F46064601F082FBD3
:104BF0000A22014680465046FFF775FF0444E5B39C
:104C0000404601F029F802460B463046394600F08E
:104C1000E5FE06460F4650462149FFF737FF04449C
:104C200000221E4B3046394601F08CF806460F46EE
:104C300001F038FBB0F1000907DA2D215046FFF7EB
:104C400039FFC9F10001804602E049464FF00008F3
:104C50000A225046FFF747FF40440444484601F00B
:104C60000BF802460B463046394600F0B7FE013DD0
:104C700015F0FF0506460F46D2D12046BDE8F08765
:104C8000BC650D00FFFFEF7FC4650D00FFFFEF4126
:104C9000C0650D00FFFFEFC10000E03F00002440B1
:104CA000D6640D0038B5044610EE100ACDB200F0FF
:104CB000F5FF41EC100B29462046BDE83840FFF7D0
:104CC00033BF0000014B024A1A607047CCE4032056
:104CD0003B660D00024B1A68024B1A60704700BF1A
:104CE00024E40320D0E403200021FFF7A5BD10B584
:104CF0008368044613B1032201469847204610BD3D
:104D000010B50446FFF7F3FF204610BD0348044AE0
:104D100004490023836000F0F3BC00BFD4E4032007
:104D20008CE40320014D0D0008B50C4B33B100F0AD
:104D300057F903681B699847002809DC084B63B1E1
:104D400000F01CFA03681B699847002803DC08BDC3
:104D5000AFF30080F2E7AFF3008008BD0000000071
:104D60000000000008B5FFF7DFFFFFF755FC014B1F
:104D7000186008BD30E703200248034A0349121AAD
:104D800001F036BB00F4032004F40320C0680D00DA
:104D900007B5002300931A466FF07701FFF75EFD19
:104DA00003B05DF804FB000007B543880A2B08D068
:104DB000502B09D1094B1B683BB103B05DF804EBE4
:104DC0001847FFF7E5FF06E0002300931A466FF04F
:104DD0007701FFF743FD03B05DF804FBE4E4032033
:104DE00038B5104C104D2368AB42104B0CBF01225C
:104DF00000221A7002D0FFF7BFFF2560FFF704FC06
:104E0000044601F009FB0A4B13B12046AFF30080C2
:104E100000210748FFF77CFD00210648BDE8384027
:104E2000FFF712BD00F403201E1C279AE8E40320BC
:104E300000000000A94D0D00704710B51821044670
:104E400000F06CFC204610BDF0B5037D062B8DB044
:104E50000E4600F104074FF0000402D000F10805EF
:104E600018E00CAD394605F8304D2F232A460A20AC
:104E7000FFF702FC284601F0F7FA33680246DB68C8
:104E80002946304698470FE024B12E213046FFF7DF
:104E900011FE044415F8011D0A223046FFF723FED7
:104EA000BD420444F0D120460DB0F0BD10B5054B15
:104EB0000446112240F8043B002101F0A4FA2046E8
:104EC00010BD00BFD8660D000346074A10B543F871
:104ED000042B01F1100251F8044B43F8044B9142AA
:104EE000F9D10A781A7010BDD8660D0010B59DF87A
:104EF000084044EA032343EA024242EA01610423F0
:104F00004160037510BD37B50D788B784A78C97844
:104F100000912946FFF7EAFF03B030BD41747047A6
:104F2000704708B50021007CFFF766FC30EA2000DE
:104F300028BF4FF0FF3008BD08B50121007CFFF706
:104F40005BFC30EA200028BF4FF0FF3008BD08B5F9
:104F5000007CFFF749FC20EAE07008BD08B5007C42
:104F6000FFF73AFC20EAE07008BD007CFFF754BC74
:104F700010B51421044600F0D1FB204610BD38B511
:104F80000446007C0D46FFF72FFC002801DC607C06
:104F900028B12946207CFFF737FC20EAE07038BDB5
:104FA00010B50446002363604FF47A73A360054B89
:104FB000236001230846217463741146FFF7FCFB4C
:104FC000204610BDEC660D000022007CFFF7FCBB04
:104FD00010B514220446002101F015FA204610BD38
:104FE00030B50E4D87B001A8FFF7F2FF296811F028
:104FF000010410D12846FFF756F860B101AA2146F6
:105000000748FFF7CDFF2846FFF752F8054A064943
:10501000034800F075FB024807B030BDECE4032004
:10502000F0E403208CE40320214F0D000022114600
:105030004068FFF735BC002211464068FFF750BCBE
:10504000002211464068FFF75BBC00224068FFF772
:105050004FBC002281F001014068FFF739BC0023FA
:105060001A4619464068FFF72BBC00231A4619461A
:105070004068FFF71DBC002211464068FFF700BCE6
:10508000002202214068FFF703BC00231A46406853
:10509000FFF7EEBB38B5084C28252A4600212046EC
:1050A00001F0B1F94FF0FF336360044B2580042217
:1050B0005A60034A1A6038BD0CE5032004E503205A
:1050C0001C670D0070474174704708B5007CFFF7FE
:1050D00013FB20EAE07008BD08B5007CFFF7E4FA96
:1050E00020EAE07008BD08B5007CFFF7EDFA30EA71
:1050F000200028BF4FF0FF3008BD08B5007CFFF747
:10510000DBFA30EA200028BF4FF0FF3008BD007CFA
:10511000FFF7E2BA10B51421044600F0FFFA20466A
:1051200010BD70B5457C04460E4625B9007CFFF7DE
:10513000E3FA002805DD3146207CBDE87040FFF72A
:10514000ABBA284670BD000010B5044608461146AB
:10515000002262604FF47A72A260054A2260012246
:10516000207462741A46FFF78FFA204610BD00BF04
:1051700050670D00007CFFF7B7BA0000F8B5194C76
:1051800025684DB98420FEF788FF064618B18422B1
:10519000294601F038F92660134D2E684EB9842057
:1051A000FEF77BFF074618B18422314601F02BF948
:1051B0002F600E4F396811F0010611D13846FEF705
:1051C00072FF68B122682B6809483146FFF7BCFFBF
:1051D0003846FEF76DFF074A0749054800F090FA88
:1051E0000348F8BD50E5032048E503204CE50320C3
:1051F00034E503208CE40320C5500D007047F8B55A
:10520000064615460C468F18BC4206D0336814F883
:10521000011B9B6830469847F6E72846F8BD0022F8
:10522000007CFFF789BA0021007CFFF78DBA0021CE
:10523000007CFFF791BA0021007CFFF795BA0021AE
:10524000007CFFF799BA10B51421044600F066FA05
:10525000204610BD10B50446002363604FF47A73F6
:10526000A360044B2174084623601146FFF794FAAB
:10527000204610BD80670D0000231A461946007CA9
:10528000FFF742BA70B50C4686B0142506462A468A
:10529000002101A801F0B7F823788DF80830636881
:1052A0000393E36804930022237A307CADF8045022
:1052B00001A90593FFF778FA06B070BD1FB500335A
:1052C0008DF800104FF06401039118BF0123694667
:1052D00001928DF80830FFF7D5FF05B05DF804FBAB
:1052E0000123FFF7EBBF0022007CFFF715BA002275
:1052F000007CFFF719BA0021007CFFF745BA0022B5
:1053000011464068FFF7ECBA002211464068FFF7EB
:10531000F7BA00224068FFF7EBBA002281F00101E2
:105320004068FFF7D5BA00231A4601214068FFF70D
:10533000C7BA00231A4619464068FFF7B9BA0022D7
:1053400011464068FFF7ACBA002211464068FFF7EB
:1053500097BA002202214068FFF79ABA00231A4642
:105360004068FFF785BA38B5054688B104684CB186
:10537000A3681BB1032221462046984710212046EE
:1053800000F0CCF928461421BDE8384000F0C6B939
:1053900038BD10B103685B681847704710B50368E3
:1053A0000446BBB15868FFF73FF978B923685A7CC7
:1053B00012B95868FFF740F923685868FFF744F9B5
:1053C00020680023236028B1FFF7CDFF206808B1D3
:1053D000FFF7C9FF204610BD38B50446D0F8C40118
:1053E00008B1FEF75EFED4F8C00108B1FFF73CF942
:1053F000D4F8BC5135B12846FFF7D0FF0421284628
:1054000000F08CF9206808B1FFF7C3FF204638BDD3
:1054100010B5044B044640F8083BFFF7DDFF20467B
:1054200010BD00BFA8670D0038B50E4C0E4B2360B1
:105430000025022304F5E4706360A560C4F8C4513C
:10544000C4F8C851FFF708F9084BC4F8CC5184F8E8
:10545000D05123602046064A0649BDE8384000F096
:105460004FB900BF54E50320DC670D00A8670D00AD
:105470008CE4032011540D0000231A464068FFF706
:10548000F7B9002202214068FFF702BA0022114654
:105490004068FFF7F5B9002211464068FFF700BAEF
:1054A00000231A4619464068FFF702BA00231A463D
:1054B00019464068FFF704BA002281F001014068F4
:1054C000FFF706BA00224068FFF712BA0022114621
:1054D0004068FFF715BA002211464068FFF700BA8E
:1054E0002DE9F043002495B016460D460746FFF718
:1054F000DDFC214620220CA8009400F084FF40230C
:105500000C9321466B460CAA3046FFF745F804463B
:10551000002844D1024601216868FFF7C1F9022141
:10552000804622466868FFF7BBF9009E8146214607
:10553000002E34D0002932D17368022B02D00A2BFE
:1055400009D02AE0B8F1000F27D07169384604313C
:10555000FFF7D9FC20E0B9F1000F1ED074691122C9
:1055600001A800F050FF06238DF8143001AD04F1BE
:1055700008031834186859682A4603C20833A3423E
:105580001546F7D101A906A807ADFFF79DFC0FCD81
:105590003C1D0FC42B6823700121F669C8E70098F1
:1055A000FEF7F2FF384615B0BDE8F083024B034A20
:1055B0001A6000225A60704728E70320DC670D005C
:1055C00070B5184E316811F0010504460AD1304615
:1055D000FEF769FD30B129461348FFF7EFF9304671
:1055E000FEF766FD1048FFF7F3F928B1A4F10B03AD
:1055F000022B01D8002070BD00F05CF8FFF77BFEA5
:1056000008B1012CF6D9FFF7B9FDFFF7B3FD18B1CA
:10561000A4F10903012BEDD9232C8CBF002001201C
:1056200070BD00BFA4E40320A8E40320232838B5FC
:1056300004460D460AD8FF2908D0FFF7C1FF28B15C
:1056400029462046BDE83840FEF7B6BF38BD38B51C
:1056500004460D46FEF7B8FFFF2810D0062804D8F0
:105660004D2323FA00F0C30709D42046FFF7A8FF13
:1056700028B129462046BDE83840FEF7ADBF38BD09
:1056800070B5044614252A46094E002100F0BBFEE1
:10569000258020253146A5602561284600F040F888
:1056A00031466060284600F03BF8E060204670BD5F
:1056B00008680D0030B50E4D296811F0010487B05F
:1056C00013D12846FEF7EFFC78B101A8FFF7D8FF09
:1056D00001AA21460748FFF7BDFD2846FEF7E8FC72
:1056E000054A0649034800F00BF8024807B030BDF0
:1056F00034E7032038E703208CE40320FD510D003C
:105700000B460146184600F065BE0000024B1868C3
:10571000BFF35F8F704700BF4CE70320FEF7BFBCAD
:1057200000F000B810B5002814BF0446012420463C
:10573000FFF7F6F820B9FFF7E9FF08B18047F6E771
:1057400010BD0000184B1A68D1075CBF01221A6017
:10575000164B1A68D2075CBF01221A60144B1A68F4
:10576000D0075CBF01221A60124B1A68D1075CBFD8
:1057700001221A60104B1A68D2075CBF01221A601E
:105780000E4B1A68D0075CBF01221A600C4B1A68D6
:10579000D1075CBF01221A600A4B1A68D2075CBFAE
:1057A00001221A60704700BF6CE7032068E70320FE
:1057B00064E7032060E703205CE7032058E7032049
:1057C00054E7032050E70320244B1A68D0075CBF3E
:1057D00001221A60224B1A68D1075CBF01221A60AD
:1057E000204B1A68D2075CBF01221A601E4B1A6850
:1057F000D0075CBF01221A601C4B1A68D1075CBF3E
:1058000001221A601A4B1A68D2075CBF01221A6083
:10581000184B1A68D0075CBF01221A60164B1A6831
:10582000D1075CBF01221A60144B1A68D2075CBF13
:1058300001221A60124B1A68D0075CBF01221A605D
:10584000104B1A68D1075CBF01221A600E4B1A6810
:10585000D2075CBF01221A60704700BF9CE703209B
:1058600098E7032094E7032090E703208CE70320C8
:1058700088E7032084E7032080E703207CE70320F8
:1058800078E7032074E7032070E70320244B1A68AD
:10589000D0075CBF01221A60224B1A68D1075CBF97
:1058A00001221A60204B1A68D2075CBF01221A60DD
:1058B0001E4B1A68D0075CBF01221A601C4B1A6885
:1058C000D1075CBF01221A601A4B1A68D2075CBF6D
:1058D00001221A60184B1A68D0075CBF01221A60B7
:1058E000164B1A68D1075CBF01221A60144B1A6864
:1058F000D2075CBF01221A60124B1A68D0075CBF46
:1059000001221A60104B1A68D1075CBF01221A608D
:105910000E4B1A68D2075CBF01221A60704700BFA5
:10592000CCE70320C8E70320C4E70320C0E7032037
:10593000BCE70320B8E70320B4E70320B0E7032067
:10594000ACE70320A8E70320A4E70320A0E7032097
:10595000184B1A68D1075CBF01221A60164B1A68EF
:10596000D2075CBF01221A60144B1A68D0075CBFD3
:1059700001221A60124B1A68D1075CBF01221A601B
:10598000104B1A68D2075CBF01221A600E4B1A68CE
:10599000D0075CBF01221A600C4B1A68D1075CBFAC
:1059A00001221A600A4B1A68D2075CBF01221A60F2
:1059B000704700BFECE70320E8E70320E4E703209B
:1059C000E0E70320DCE70320D8E70320D4E7032047
:1059D000D0E7032081F0004102E000BF83F00043E4
:1059E00030B54FEA41044FEA430594EA050F08BF7A
:1059F00090EA020F1FBF54EA000C55EA020C7FEA3E
:105A0000645C7FEA655C00F0E2804FEA5454D4EBBA
:105A10005555B8BF6D420CDD2C4480EA020281EA84
:105A2000030382EA000083EA010180EA020281EABC
:105A30000303362D88BF30BD11F0004F4FEA01310E
:105A40004FF4801C4CEA113102D0404261EB41011D
:105A500013F0004F4FEA03334CEA133302D05242A3
:105A600063EB430394EA050F00F0A780A4F101045F
:105A7000D5F1200E0DDB02FA0EFC22FA05F2801899
:105A800041F1000103FA0EF2801843FA05F359417F
:105A90000EE0A5F120050EF1200E012A03FA0EFCFE
:105AA00028BF4CF0020C43FA05F3C01851EBE37128
:105AB00001F0004507D54FF0000EDCF1000C7EEB45
:105AC00000006EEB0101B1F5801F1BD3B1F5001F83
:105AD0000CD349085FEA30004FEA3C0C04F10104A2
:105AE0004FEA445212F5800F80F09A80BCF1004FCB
:105AF00008BF5FEA500C50F1000041EB045141EA4D
:105B0000050130BD5FEA4C0C404141EB010111F44D
:105B1000801FA4F10104E9D191F0000F04BF0146F8
:105B20000020B1FA81F308BF2033A3F10B03B3F1D6
:105B300020020CDA0C3208DD02F1140CC2F10C0266
:105B400001FA0CF021FA02F10CE002F11402D8BFC4
:105B5000C2F1200C01FA02F120FA0CFCDCBF41EA90
:105B60000C019040E41AA2BF01EB0451294330BD5F
:105B70006FEA04041F3C1CDA0C340EDC04F114043C
:105B8000C4F1200220FA04F001FA02F340EA030013
:105B900021FA04F345EA030130BDC4F10C04C4F159
:105BA000200220FA02F001FA04F340EA0300294639
:105BB00030BD21FA04F0294630BD94F0000F83F483
:105BC000801306BF81F480110134013D4EE77FEA66
:105BD000645C18BF7FEA655C29D094EA050F08BFB2
:105BE00090EA020F05D054EA000C04BF1946104693
:105BF00030BD91EA030F1EBF0021002030BD5FEAD7
:105C0000545C05D14000494128BF41F0004130BDFE
:105C100014F580043CBF01F5801130BD01F0004552
:105C200045F0FE4141F470014FF0000030BD7FEAC5
:105C3000645C1ABF194610467FEA655C1CBF0B46C0
:105C4000024650EA013406BF52EA033591EA030FD7
:105C500041F4002130BD00BF90F0000F04BF0021CF
:105C6000704730B54FF4806404F132044FF0000502
:105C70004FF0000150E700BF90F0000F04BF00217B
:105C8000704730B54FF4806404F1320410F00045E1
:105C900048BF40424FF000013EE700BF42004FEADC
:105CA000E2014FEA31014FEA02701FBF12F07F4359
:105CB00093F07F4F81F06051704792F0000F14BF56
:105CC00093F07F4F704730B54FF4607401F000459A
:105CD00021F0004120E700BF50EA010208BF7047F1
:105CE00030B54FF000050AE050EA010208BF7047E6
:105CF00030B511F0004502D5404261EB41014FF44F
:105D0000806404F132045FEA915C3FF4DCAE4FF052
:105D100003025FEADC0C18BF03325FEADC0C18BF39
:105D2000033202EBDC02C2F1200300FA03FC20FA8A
:105D300002F001FA03FE40EA0E0021FA02F11444D7
:105D4000C1E600BF70B54FF0FF0C4CF4E06C1CEAEC
:105D500011541DBF1CEA135594EA0C0F95EA0C0F61
:105D600000F0DEF82C4481EA030621EA4C5123EAD4
:105D70004C5350EA013518BF52EA033541F4801103
:105D800043F4801338D0A0FB02CE4FF00005E1FBB6
:105D900002E506F00042E0FB03E54FF00006E1FB00
:105DA00003569CF0000F18BF4EF0010EA4F1FF0443
:105DB000B6F5007F64F5407404D25FEA4E0E6D4183
:105DC00046EB060642EAC62141EA55514FEAC52094
:105DD00040EA5E504FEACE2EB4F1FD0C88BFBCF510
:105DE000E06F1ED8BEF1004F08BF5FEA500E50F1C1
:105DF000000041EB045170BD06F0004646EA010187
:105E000040EA020081EA0301B4EB5C04C2BFD4EBB8
:105E10000C0541EA045170BD41F480114FF0000EB1
:105E2000013C00F3AB8014F1360FDEBF002001F01F
:105E3000004170BDC4F10004203C35DA0C341BDC99
:105E400004F11404C4F1200500FA05F320FA04F06B
:105E500001FA05F240EA020001F0004221F000419F
:105E600010EBD37021FA04F642EB06015EEA430E12
:105E700008BF20EAD37070BDC4F10C04C4F1200542
:105E800000FA04F320FA05F001FA04F240EA0200F5
:105E900001F0004110EBD37041F100015EEA430EC6
:105EA00008BF20EAD37070BDC4F1200500FA05F2E6
:105EB0004EEA020E20FA04F301FA05F243EA020365
:105EC00021FA04F001F0004121FA04F220EA020074
:105ED00000EBD3705EEA430E08BF20EAD37070BDBA
:105EE00094F0000F0FD101F00046400041EB01019A
:105EF00011F4801F08BF013CF7D041EA060195F07C
:105F0000000F18BF704703F00046520043EB030335
:105F100013F4801F08BF013DF7D043EA0603704722
:105F200094EA0C0F0CEA135518BF95EA0C0F0CD02D
:105F300050EA410618BF52EA4306D1D181EA030173
:105F400001F000414FF0000070BD50EA410606BF6D
:105F50001046194652EA430619D094EA0C0F02D1B2
:105F600050EA013613D195EA0C0F05D152EA0336F7
:105F70001CBF104619460AD181EA030101F0004115
:105F800041F0FE4141F470014FF0000070BD41F05E
:105F9000FE4141F4780170BD70B54FF0FF0C4CF438
:105FA000E06C1CEA11541DBF1CEA135594EA0C0F57
:105FB00095EA0C0F00F0A7F8A4EB050481EA030EA4
:105FC00052EA03354FEA013100F088804FEA03338B
:105FD0004FF0805545EA131343EA12634FEA022259
:105FE00045EA111545EA10654FEA00260EF000411A
:105FF0009D4208BF964244F1FD0404F5407402D26C
:106000005B084FEA3202B61A65EB03055B084FEAFC
:1060100032024FF480104FF4002CB6EB020E75EBF9
:10602000030E22BFB61A754640EA0C005B084FEA21
:106030003202B6EB020E75EB030E22BFB61A75469E
:1060400040EA5C005B084FEA3202B6EB020E75EBE9
:10605000030E22BFB61A754640EA9C005B084FEA61
:106060003202B6EB020E75EB030E22BFB61A75466E
:1060700040EADC0055EA060E18D04FEA051545EA5D
:1060800016754FEA06164FEAC30343EA52734FEA06
:10609000C2025FEA1C1CC0D111F4801F0BD141EA7F
:1060A00000014FF000004FF0004CB6E711F4801FE4
:1060B00004BF01430020B4F1FD0C88BFBCF5E06FC4
:1060C0003FF6AFAEB5EB030C04BFB6EB020C5FEAD4
:1060D000500C50F1000041EB045170BD0EF0004E29
:1060E0004EEA113114EB5C04C2BFD4EB0C0541EA5B
:1060F000045170BD41F480114FF0000E013C90E658
:1061000045EA060E8DE60CEA135594EA0C0F08BF1B
:1061100095EA0C0F3FF43BAF94EA0C0F0AD150EA1A
:1061200001347FF434AF95EA0C0F7FF425AF1046AD
:1061300019462CE795EA0C0F06D152EA03353FF4D5
:10614000FDAE1046194622E750EA410618BF52EA52
:1061500043067FF4C5AE50EA41047FF40DAF52EA26
:1061600043057FF4EBAE12E74FF0FF3C06E000BFC3
:106170004FF0010C02E000BF4FF0010C4DF804CDD0
:106180004FEA410C7FEA6C5C4FEA430C18BF7FEA90
:106190006C5C1BD001B050EA410C0CBF52EA430CBE
:1061A00091EA030F02BF90EA020F0020704710F13E
:1061B000000F91EA030F58BF994208BF90422CBFCD
:1061C000D8176FEAE37040F0010070474FEA410CC6
:1061D0007FEA6C5C02D150EA013C07D14FEA430CE4
:1061E0007FEA6C5CD6D152EA033CD3D05DF8040B55
:1061F000704700BF8446104662468C461946634687
:1062000000E000BF01B5FFF7B7FF002848BF10F15D
:10621000000F01BD4DF808EDFFF7F4FF0CBF0120A2
:1062200000205DF808FB00BF4DF808EDFFF7EAFF1E
:1062300034BF012000205DF808FB00BF4DF808EDD9
:10624000FFF7E0FF94BF012000205DF808FB00BFCE
:106250004DF808EDFFF7CEFF94BF012000205DF858
:1062600008FB00BF4DF808EDFFF7C4FF34BF012065
:1062700000205DF808FB00BF4FEA410C7FEA6C5C30
:1062800002D150EA013C0AD14FEA430C7FEA6C5C30
:1062900002D152EA033C02D14FF0000070474FF0A8
:1062A000010070474FEA410212F5001215D211D5D4
:1062B0006FF47873B3EB625212D94FEAC12343F003
:1062C000004343EA505311F0004F23FA02F018BF85
:1062D000404270474FF00000704750EA013005D14E
:1062E00011F0004008BF6FF0004070474FF0000011
:1062F000704700BF4A0011D212F5001211D20DD51D
:106300006FF47873B3EB62520ED44FEAC12343F0BB
:10631000004343EA505323FA02F070474FF0000065
:10632000704750EA013002D14FF0FF3070474FF014
:10633000000070474FEA4102B2F1E04324BFB3F5D9
:10634000001CDCF1FE5C0DD901F0004C4FEAC002EC
:106350004CEA5070B2F1004F40EB830008BF20F0D0
:106360000100704711F0804F21D113F13872BCBF8A
:1063700001F00040704741F480114FEA5252C2F1DF
:106380001802C2F1200C10FA0CF320FA02F018BF28
:1063900040F001004FEAC1234FEAD32303FA0CFC7B
:1063A00040EA0C0023FA02F34FEA4303CCE77FEA0A
:1063B000625307D150EA01331EBF4FF0FE4040F454
:1063C0004000704701F0004040F0FE4040F4000003
:1063D000704700BF10B5054C13462CB10A46014664
:1063E0000220AFF3008010BD204610BD0000000069
:1063F00010B5431E0A44914204D011F8014B03F832
:10640000014FF8E710BD02440346934202D003F85F
:10641000011BFAE77047000038B5124B1C68A36BEC
:106420000546D3B91820FEF77BFA43F20E33A0637A
:1064300003804AF6CD33438041F2342383804EF209
:106440006D63C3804DF6EC630381052343810B2309
:10645000838101220023C0E90423A36B00221D6174
:106460005A6138BD88E40320034613F8012B002A43
:10647000FBD1181A0138704721400D005D400D0016
:1064800089400D008D400D0000000000564C353352
:106490004C315820517769696320546573740053F7
:1064A000656E736F72206661696C656420746F201D
:1064B000626567696E2E20506C6561736520636844
:1064C00065636B20776972696E672E204672656519
:1064D0007A696E672E2E2E0053656E736F72206F71
:1064E0006E6C696E65210044697374616E63652822
:1064F0006D6D293A20000944697374616E636528E3
:106500006674293A20000001010102000208000817
:1065100010010100000000FF000F0000000000203B
:106520000B0000020A2100000500000000C8000066
:1065300038FF010008000001DB0F01F10D016800C8
:106540008008B8000000000F890000000000000073
:10655000010F0D0E0E000002C7FF9B00000001009E
:10656000000000000000000000000000A7440D0033
:1065700087440D0071440D002D440D0063440D004F
:1065800049440D002F440D000000000000000000F1
:106590009F490D0095490D008B490D0081490D0063
:1065A00075490D0069490D005D490D0055490D0003
:1065B0004B490D0041490D00E1540D006E616E0024
:1065C0006F766600696E660062617564005365727D
:1065D00069616C0053657269616C31007479706532
:1065E00000706172616D00636D6400696400686EC3
:1065F00064007374726D0066696C74006C766C0074
:1066000061646448616E646C65720072656D6F767A
:106610006548616E646C657200656E756D48616E8B
:10662000646C657273004A534F4E53747265616DAA
:106630004C6F6748616E646C657200617070002514
:106640003031307520005D20002564002C200028AA
:10665000293A2000205B00636F6465203D200025FF
:10666000690064657461696C73203D20000D0A0047
:106670006C6E00666E00636F6465006465746169CA
:106680006C006E6F6E6500747261636500696E66A2
:106690006F007761726E006572726F720070616E6A
:1066A000696300616C6C005A00252B3033643A2515
:1066B0003032750025592D256D2D25645425483A15
:1066C000254D3A2553257A0061736374696D650021
:1066D0000000000000000000494E0D00394E0D0082
:1066E0003B4E0D000000000000000000214F0D0097
:1066F000714F0D007F4F0D00614A0D005D4F0D0081
:10670000234F0D00394F0D006B4F0D004F4F0D0003
:106710001D4F0D0000000000000000008B500D0018
:1067200081500D0077500D002D500D006B500D0065
:106730005F500D0053500D004B500D0041500D00A7
:1067400037500D00E1540D00000000000000000073
:10675000C5500D0015510D0023510D00614A0D006B
:10676000D9500D00FB500D00E7500D000F510D00EA
:10677000C7500D00CB500D000000000000000000CD
:10678000FD510D0047520D001F520D00FF510D002D
:1067900027520D002F520D0037520D003F520D00B1
:1067A00000000000000000005D530D0053530D0079
:1067B00049530D003F530D0033530D0027530D0077
:1067C0001B530D0013530D0009530D00FF520D0014
:1067D000E1540D00000000000000000079540D009D
:1067E00083540D008D540D0097540D00A1540D00DD
:1067F000AD540D00B9540D00C5540D00CD540D001D
:10680000D7540D00E1540D0000000000000000000E
:106810000000000000000000000000000000000078
:106820000000000000000000000000000000000068
:106830000000000000000000000000000000000058
:106840000000000000000000000000000000000048
:106850000000000000000000000000000000000038
:1068600000000000000000000000000043000000E5
:10687000AD410D00CD410D0029440D0085450D00B1
:10688000A9490D00F5490D00394A0D00C54C0D0010
:10689000D54C0D000D4D0D0095500D0029540D00E7
:1068A000AD550D0045570D00C9570D008D580D0011
:1068B00051590D0000000000000000000000000021
:0468C00000000000D4
:1068C400C8660D00000000000C680D002C680D0067
:1068D4004C680D00000000000000000000000000F3
:1068E400000000006C680D000000000000000000C3
:1068F4000000000000000000000000000000000094
:106904000000000000000000000000000000000083
:106914000000000000000000000000000000000073
:086924000000000028E403203C
:10692C00FFFFFFFF00000102030405060708090A28
:10693C000B0C0D0E0F101112131415161718191A23
:08694C001B1C1D1E1F2028006A
:04695400785634122B
:04000003D0004020C9
:00000001FF
